:020000040000FA
:020000000528D1
:080008000900831681140000B9
:1000100001150000011400008115831264000430F2
:1000200090008B138316FF23900083128316851490
:10003000000000009F1400001F1600009F12000027
:100040001F170000851200000000051100001F119D
:100050000000051200001F120000051000001F1014
:1000600000008515000000008312851200000511B4
:1000700000000512000005100000C701C70B412851
:1000800005286400043099000F309021191F46287C
:10009000D72036216400043099000F309021191FB9
:1000A0004628D720E32047216400043099000F3010
:1000B0009021191F4628D720EA20582164000430D7
:1000C00099000F309021191F4628D720F12069216F
:1000D0006400043099000F309021191F4628D72062
:1000E000F8206400043099000F309021191F462831
:1000F000D7207E208720902099203E2838080F396D
:100100000F3CA000A00AA220A00B832808003A08F8
:100110000F390F3CA000A00AA420A00B8C280800D7
:100120003C080F390F3CA000A00AA620A00B952880
:1001300008003E080F390F3CA000A00AA820A00B21
:100140009E2808002030AA280430AA281030AA28A7
:100150000130AA288500850185008501850085017B
:100160008500850185008501850085018500850163
:100170008500850185008501850085018500850153
:100180008500850185008501850085018500850143
:100190008500850108009F1808009F1300001F11AB
:1001A00000009F1100001F1400009F1408009F18FA
:1001B00008009F1300001F1100009F1500001F146E
:1001C00000009F14080083161E08C0001E08BF0010
:1001D0008312080083161E08C2001E08C100831285
:1001E000080083161E08C2001E08C1008312080002
:1001F00083161E08C2001E08C10083120800AD014C
:10020000AE01AF013708B0001129AD01AE01AF0159
:100210003808B0001129AD01AE010F08AF000E087B
:10022000B0009A212608C521270EC5212E30CA21EB
:100230002708C521280EC5212808C5212030CA213C
:100240000800073099008D2108008516B701043099
:100250009900851200008516370885129421191B14
:100260002129B70F2B291030B70021298516B80195
:1002700004309900851200008516380885129021F7
:10028000191B2129B80F3C291030B8002129051568
:10029000BA01043099000511000005153A0805114E
:1002A0009021191B2129BA0F4D291030BA0021299C
:1002B0000516BC01043099000512000005163C0823
:1002C00005129021191B2129BC0F5E291030BC009A
:1002D00021290514BE010430990005100000051401
:1002E0003E0805109021191B2129BE0F6F291030DF
:1002F000BE002129640083160111000081106300F3
:1003000001150000811483126400080064000730A6
:1003100099008D216300640008008316003097293E
:1003200083160F398038972983160F39A038990022
:10033000831208002030A900A101A201A301A40199
:10034000A501A601A701A801213084000830AA0058
:10035000333080078019F039801B0F398002840AFE
:10036000AA0BA829B00DAF0DAE0DAD0DA80DA70DB0
:10037000A60DA50DA40DA30DA20DA10DA90BA429D9
:1003800008000D30CA210A30CA290F39303EAC00AE
:10039000CA210034B2008316051083120930B3005D
:1003A00036103618E021361CE921B20C0318DA2980
:1003B0003610DB293614B30BD129E021E0210800E7
:1003C000A530B4000130B500B40BE729B50BE42922
:1003D00008001F30B4000514ED29EE29EF29F0299B
:1003E000F12900000510F429F529F629F729F82943
:1003F0000000B40BEB290514FD29FE29FF29002A72
:0E040000012A00000510042A052A0000080049
:0207FE0038348D
:02400E00C43FAD
:00000001FF
