:020000040000FA
:020000000528D1
:08000800BB28831681140000DF
:1000100001150000011400008115831264000430F2
:1000200090008B170B178316FF2390008312831603
:1000300085140000051400009F1400001F141F16F3
:1000400000009F1200001F17000085120000000032
:10005000051100001F110000051200001F12000012
:1000600085150000000083128516000005150000AC
:10007000051600006400043099000F301421191F88
:100080003F28E32052203A288C2064007620640028
:10009000C52064006A206400F420640070204521BB
:1000A00064003A289F1808009F1300001F110000E9
:1000B0009F1100001F1400009F1408009F180800E3
:1000C0009F1300001F1100009F1500001F14000067
:1000D0009F140800AD01AE01AF013708B0007C28C5
:1000E000AD01AE01AF013808B0007C28AD01AE0112
:1000F0000F08AF000E08B0001E2126084921270E68
:1001000049212E304E2127084921280E492128084F
:10011000492120304E2108008312023099008E01BF
:100120008F01831685140C10831605108312051099
:10013000A001A00B9928A001A00B9C28A001A00B56
:100140009F28A001A00BA22883160514831205186E
:1001500094288C1183121014990883160C14000033
:100160008C1500008C19B128831605108312051018
:10017000073099000800831210108C1100000C1039
:1001800083168C1100000C100900B701043099008F
:1001900037081821191BCE28B70FC8280730990037
:1001A000112108000511B701043099000515000060
:1001B0000511370805151821191BCE28B70FD828A7
:1001C0001030B700CE280511B8010430990005158C
:1001D00000000511380805151421191BCE28B80F89
:1001E000E9281030B800CE28B8010430990038084A
:1001F0001421191BCE28B80FF728CE2864008316C7
:1002000001110000811063000115000081148312A8
:100210006400080064000730990011216300640045
:100220000800831600301B2983160F3980381B29DC
:1002300083160F39A0389900831208002030A900D6
:10024000A101A201A301A401A501A601A701A80182
:10025000213084000830AA00333080078019F0393B
:10026000801B0F398002840AAA0B2C29B00DAF0D18
:10027000AE0DAD0DA80DA70DA60DA50DA40DA30DDA
:10028000A20DA10DA90B282908000D304E210A301E
:100290004E290F39303EAC004E210034B200831697
:1002A000051083120930B300361036186421361C4D
:1002B0006D21B20C03185E2936105F293614B30B7A
:1002C0005529642164210800A530B4000130B5002F
:1002D000B40B6B29B50B682908001F30B400051456
:1002E000712972297329742975290000051078294C
:1002F00079297A297B297C290000B40B6F29051400
:1003000081298229832984298529000005108829CB
:060310008929000008002D
:0207FE0038348D
:02400E00CC3FA5
:00000001FF
